{
  "_format": "hh-sol-artifact-1",
  "contractName": "RepliconAssetPortfolio",
  "sourceName": "contracts/RepliconAssetPortfolio.sol",
  "abi": [
    {
      "inputs": [],
      "stateMutability": "nonpayable",
      "type": "constructor"
    },
    {
      "inputs": [
        {
          "internalType": "address",
          "name": "sender",
          "type": "address"
        },
        {
          "internalType": "uint256",
          "name": "tokenId",
          "type": "uint256"
        },
        {
          "internalType": "address",
          "name": "owner",
          "type": "address"
        }
      ],
      "name": "ERC721IncorrectOwner",
      "type": "error"
    },
    {
      "inputs": [
        {
          "internalType": "address",
          "name": "operator",
          "type": "address"
        },
        {
          "internalType": "uint256",
          "name": "tokenId",
          "type": "uint256"
        }
      ],
      "name": "ERC721InsufficientApproval",
      "type": "error"
    },
    {
      "inputs": [
        {
          "internalType": "address",
          "name": "approver",
          "type": "address"
        }
      ],
      "name": "ERC721InvalidApprover",
      "type": "error"
    },
    {
      "inputs": [
        {
          "internalType": "address",
          "name": "operator",
          "type": "address"
        }
      ],
      "name": "ERC721InvalidOperator",
      "type": "error"
    },
    {
      "inputs": [
        {
          "internalType": "address",
          "name": "owner",
          "type": "address"
        }
      ],
      "name": "ERC721InvalidOwner",
      "type": "error"
    },
    {
      "inputs": [
        {
          "internalType": "address",
          "name": "receiver",
          "type": "address"
        }
      ],
      "name": "ERC721InvalidReceiver",
      "type": "error"
    },
    {
      "inputs": [
        {
          "internalType": "address",
          "name": "sender",
          "type": "address"
        }
      ],
      "name": "ERC721InvalidSender",
      "type": "error"
    },
    {
      "inputs": [
        {
          "internalType": "uint256",
          "name": "tokenId",
          "type": "uint256"
        }
      ],
      "name": "ERC721NonexistentToken",
      "type": "error"
    },
    {
      "anonymous": false,
      "inputs": [
        {
          "indexed": true,
          "internalType": "address",
          "name": "owner",
          "type": "address"
        },
        {
          "indexed": true,
          "internalType": "address",
          "name": "approved",
          "type": "address"
        },
        {
          "indexed": true,
          "internalType": "uint256",
          "name": "tokenId",
          "type": "uint256"
        }
      ],
      "name": "Approval",
      "type": "event"
    },
    {
      "anonymous": false,
      "inputs": [
        {
          "indexed": true,
          "internalType": "address",
          "name": "owner",
          "type": "address"
        },
        {
          "indexed": true,
          "internalType": "address",
          "name": "operator",
          "type": "address"
        },
        {
          "indexed": false,
          "internalType": "bool",
          "name": "approved",
          "type": "bool"
        }
      ],
      "name": "ApprovalForAll",
      "type": "event"
    },
    {
      "anonymous": false,
      "inputs": [
        {
          "indexed": false,
          "internalType": "uint256",
          "name": "_fromTokenId",
          "type": "uint256"
        },
        {
          "indexed": false,
          "internalType": "uint256",
          "name": "_toTokenId",
          "type": "uint256"
        }
      ],
      "name": "BatchMetadataUpdate",
      "type": "event"
    },
    {
      "anonymous": false,
      "inputs": [
        {
          "indexed": false,
          "internalType": "uint256",
          "name": "_tokenId",
          "type": "uint256"
        }
      ],
      "name": "MetadataUpdate",
      "type": "event"
    },
    {
      "anonymous": false,
      "inputs": [
        {
          "indexed": true,
          "internalType": "address",
          "name": "from",
          "type": "address"
        },
        {
          "indexed": true,
          "internalType": "address",
          "name": "to",
          "type": "address"
        },
        {
          "indexed": true,
          "internalType": "uint256",
          "name": "tokenId",
          "type": "uint256"
        }
      ],
      "name": "Transfer",
      "type": "event"
    },
    {
      "inputs": [
        {
          "internalType": "address",
          "name": "to",
          "type": "address"
        },
        {
          "internalType": "uint256",
          "name": "tokenId",
          "type": "uint256"
        }
      ],
      "name": "approve",
      "outputs": [],
      "stateMutability": "nonpayable",
      "type": "function"
    },
    {
      "inputs": [
        {
          "internalType": "address",
          "name": "owner",
          "type": "address"
        }
      ],
      "name": "balanceOf",
      "outputs": [
        {
          "internalType": "uint256",
          "name": "",
          "type": "uint256"
        }
      ],
      "stateMutability": "view",
      "type": "function"
    },
    {
      "inputs": [
        {
          "internalType": "uint256",
          "name": "tokenId",
          "type": "uint256"
        }
      ],
      "name": "getApproved",
      "outputs": [
        {
          "internalType": "address",
          "name": "",
          "type": "address"
        }
      ],
      "stateMutability": "view",
      "type": "function"
    },
    {
      "inputs": [
        {
          "internalType": "address",
          "name": "owner",
          "type": "address"
        },
        {
          "internalType": "address",
          "name": "operator",
          "type": "address"
        }
      ],
      "name": "isApprovedForAll",
      "outputs": [
        {
          "internalType": "bool",
          "name": "",
          "type": "bool"
        }
      ],
      "stateMutability": "view",
      "type": "function"
    },
    {
      "inputs": [
        {
          "internalType": "address",
          "name": "user",
          "type": "address"
        },
        {
          "internalType": "string",
          "name": "tokenURI",
          "type": "string"
        }
      ],
      "name": "listItem",
      "outputs": [
        {
          "internalType": "uint256",
          "name": "",
          "type": "uint256"
        }
      ],
      "stateMutability": "nonpayable",
      "type": "function"
    },
    {
      "inputs": [],
      "name": "name",
      "outputs": [
        {
          "internalType": "string",
          "name": "",
          "type": "string"
        }
      ],
      "stateMutability": "view",
      "type": "function"
    },
    {
      "inputs": [
        {
          "internalType": "uint256",
          "name": "tokenId",
          "type": "uint256"
        }
      ],
      "name": "ownerOf",
      "outputs": [
        {
          "internalType": "address",
          "name": "",
          "type": "address"
        }
      ],
      "stateMutability": "view",
      "type": "function"
    },
    {
      "inputs": [
        {
          "internalType": "address",
          "name": "from",
          "type": "address"
        },
        {
          "internalType": "address",
          "name": "to",
          "type": "address"
        },
        {
          "internalType": "uint256",
          "name": "tokenId",
          "type": "uint256"
        }
      ],
      "name": "safeTransferFrom",
      "outputs": [],
      "stateMutability": "nonpayable",
      "type": "function"
    },
    {
      "inputs": [
        {
          "internalType": "address",
          "name": "",
          "type": "address"
        },
        {
          "internalType": "address",
          "name": "",
          "type": "address"
        },
        {
          "internalType": "uint256",
          "name": "",
          "type": "uint256"
        },
        {
          "internalType": "bytes",
          "name": "",
          "type": "bytes"
        }
      ],
      "name": "safeTransferFrom",
      "outputs": [],
      "stateMutability": "pure",
      "type": "function"
    },
    {
      "inputs": [
        {
          "internalType": "address",
          "name": "operator",
          "type": "address"
        },
        {
          "internalType": "bool",
          "name": "approved",
          "type": "bool"
        }
      ],
      "name": "setApprovalForAll",
      "outputs": [],
      "stateMutability": "nonpayable",
      "type": "function"
    },
    {
      "inputs": [
        {
          "internalType": "bytes4",
          "name": "interfaceId",
          "type": "bytes4"
        }
      ],
      "name": "supportsInterface",
      "outputs": [
        {
          "internalType": "bool",
          "name": "",
          "type": "bool"
        }
      ],
      "stateMutability": "view",
      "type": "function"
    },
    {
      "inputs": [],
      "name": "symbol",
      "outputs": [
        {
          "internalType": "string",
          "name": "",
          "type": "string"
        }
      ],
      "stateMutability": "view",
      "type": "function"
    },
    {
      "inputs": [
        {
          "internalType": "uint256",
          "name": "tokenId",
          "type": "uint256"
        }
      ],
      "name": "tokenURI",
      "outputs": [
        {
          "internalType": "string",
          "name": "",
          "type": "string"
        }
      ],
      "stateMutability": "view",
      "type": "function"
    },
    {
      "inputs": [
        {
          "internalType": "address",
          "name": "",
          "type": "address"
        },
        {
          "internalType": "address",
          "name": "",
          "type": "address"
        },
        {
          "internalType": "uint256",
          "name": "",
          "type": "uint256"
        }
      ],
      "name": "transferFrom",
      "outputs": [],
      "stateMutability": "pure",
      "type": "function"
    }
  ],
  "bytecode": "0x608060405234801561001057600080fd5b506040518060400160405280601681526020017f5265706c69636f6e4173736574506f7274666f6c696f000000000000000000008152506040518060400160405280600481526020017f5250414c00000000000000000000000000000000000000000000000000000000815250816000908161008c91906102f4565b50806001908161009c91906102f4565b5050506103c6565b600081519050919050565b7f4e487b7100000000000000000000000000000000000000000000000000000000600052604160045260246000fd5b7f4e487b7100000000000000000000000000000000000000000000000000000000600052602260045260246000fd5b6000600282049050600182168061012557607f821691505b602082108103610138576101376100de565b5b50919050565b60008190508160005260206000209050919050565b60006020601f8301049050919050565b600082821b905092915050565b6000600883026101a07fffffffffffffffffffffffffffffffffffffffffffffffffffffffffffffffff82610163565b6101aa8683610163565b95508019841693508086168417925050509392505050565b6000819050919050565b6000819050919050565b60006101f16101ec6101e7846101c2565b6101cc565b6101c2565b9050919050565b6000819050919050565b61020b836101d6565b61021f610217826101f8565b848454610170565b825550505050565b600090565b610234610227565b61023f818484610202565b505050565b5b818110156102635761025860008261022c565b600181019050610245565b5050565b601f8211156102a8576102798161013e565b61028284610153565b81016020851015610291578190505b6102a561029d85610153565b830182610244565b50505b505050565b600082821c905092915050565b60006102cb600019846008026102ad565b1980831691505092915050565b60006102e483836102ba565b9150826002028217905092915050565b6102fd826100a4565b67ffffffffffffffff811115610316576103156100af565b5b610320825461010d565b61032b828285610267565b600060209050601f83116001811461035e576000841561034c578287015190505b61035685826102d8565b8655506103be565b601f19841661036c8661013e565b60005b828110156103945784890151825560018201915060208501945060208101905061036f565b868310156103b157848901516103ad601f8916826102ba565b8355505b6001600288020188555050505b505050505050565b6120d4806103d56000396000f3fe608060405234801561001057600080fd5b50600436106100ea5760003560e01c806370a082311161008c578063a22cb46511610066578063a22cb4651461026f578063b88d4fde1461028b578063c87b56dd146102a7578063e985e9c5146102d7576100ea565b806370a08231146101f15780637b309c371461022157806395d89b4114610251576100ea565b8063095ea7b3116100c8578063095ea7b31461016d57806323b872dd1461018957806342842e0e146101a55780636352211e146101c1576100ea565b806301ffc9a7146100ef57806306fdde031461011f578063081812fc1461013d575b600080fd5b610109600480360381019061010491906115b4565b610307565b60405161011691906115fc565b60405180910390f35b610127610368565b60405161013491906116a7565b60405180910390f35b610157600480360381019061015291906116ff565b6103fa565b604051610164919061176d565b60405180910390f35b610187600480360381019061018291906117b4565b610416565b005b6101a3600480360381019061019e91906117f4565b61042c565b005b6101bf60048036038101906101ba91906117f4565b610467565b005b6101db60048036038101906101d691906116ff565b610487565b6040516101e8919061176d565b60405180910390f35b61020b60048036038101906102069190611847565b610499565b6040516102189190611883565b60405180910390f35b61023b600480360381019061023691906119d3565b610553565b6040516102489190611883565b60405180910390f35b61025961058d565b60405161026691906116a7565b60405180910390f35b61028960048036038101906102849190611a5b565b61061f565b005b6102a560048036038101906102a09190611b3c565b610635565b005b6102c160048036038101906102bc91906116ff565b610670565b6040516102ce91906116a7565b60405180910390f35b6102f160048036038101906102ec9190611bbf565b610783565b6040516102fe91906115fc565b60405180910390f35b6000634906490660e01b7bffffffffffffffffffffffffffffffffffffffffffffffffffffffff1916827bffffffffffffffffffffffffffffffffffffffffffffffffffffffff19161480610361575061036082610817565b5b9050919050565b60606000805461037790611c2e565b80601f01602080910402602001604051908101604052809291908181526020018280546103a390611c2e565b80156103f05780601f106103c5576101008083540402835291602001916103f0565b820191906000526020600020905b8154815290600101906020018083116103d357829003601f168201915b5050505050905090565b6000610405826108f9565b5061040f82610981565b9050919050565b61042882826104236109be565b6109c6565b5050565b6040517f08c379a000000000000000000000000000000000000000000000000000000000815260040161045e90611cd1565b60405180910390fd5b61048283838360405180602001604052806000815250610635565b505050565b6000610492826108f9565b9050919050565b60008073ffffffffffffffffffffffffffffffffffffffff168273ffffffffffffffffffffffffffffffffffffffff160361050c5760006040517f89c62b64000000000000000000000000000000000000000000000000000000008152600401610503919061176d565b60405180910390fd5b600360008373ffffffffffffffffffffffffffffffffffffffff1673ffffffffffffffffffffffffffffffffffffffff168152602001908152602001600020549050919050565b6000806007600081548092919061056990611d20565b91905055905061057984826109d8565b6105838184610ad1565b8091505092915050565b60606001805461059c90611c2e565b80601f01602080910402602001604051908101604052809291908181526020018280546105c890611c2e565b80156106155780601f106105ea57610100808354040283529160200191610615565b820191906000526020600020905b8154815290600101906020018083116105f857829003601f168201915b5050505050905090565b61063161062a6109be565b8383610b2d565b5050565b6040517f08c379a000000000000000000000000000000000000000000000000000000000815260040161066790611cd1565b60405180910390fd5b606061067b826108f9565b50600060066000848152602001908152602001600020805461069c90611c2e565b80601f01602080910402602001604051908101604052809291908181526020018280546106c890611c2e565b80156107155780601f106106ea57610100808354040283529160200191610715565b820191906000526020600020905b8154815290600101906020018083116106f857829003601f168201915b505050505090506000610726610c9c565b9050600081510361073b57819250505061077e565b600082511115610770578082604051602001610758929190611da4565b6040516020818303038152906040529250505061077e565b61077984610cb3565b925050505b919050565b6000600560008473ffffffffffffffffffffffffffffffffffffffff1673ffffffffffffffffffffffffffffffffffffffff16815260200190815260200160002060008373ffffffffffffffffffffffffffffffffffffffff1673ffffffffffffffffffffffffffffffffffffffff16815260200190815260200160002060009054906101000a900460ff16905092915050565b60007f80ac58cd000000000000000000000000000000000000000000000000000000007bffffffffffffffffffffffffffffffffffffffffffffffffffffffff1916827bffffffffffffffffffffffffffffffffffffffffffffffffffffffff191614806108e257507f5b5e139f000000000000000000000000000000000000000000000000000000007bffffffffffffffffffffffffffffffffffffffffffffffffffffffff1916827bffffffffffffffffffffffffffffffffffffffffffffffffffffffff1916145b806108f257506108f182610d1c565b5b9050919050565b60008061090583610d86565b9050600073ffffffffffffffffffffffffffffffffffffffff168173ffffffffffffffffffffffffffffffffffffffff160361097857826040517f7e27328900000000000000000000000000000000000000000000000000000000815260040161096f9190611883565b60405180910390fd5b80915050919050565b60006004600083815260200190815260200160002060009054906101000a900473ffffffffffffffffffffffffffffffffffffffff169050919050565b600033905090565b6109d38383836001610dc3565b505050565b600073ffffffffffffffffffffffffffffffffffffffff168273ffffffffffffffffffffffffffffffffffffffff1603610a4a5760006040517f64a0ae92000000000000000000000000000000000000000000000000000000008152600401610a41919061176d565b60405180910390fd5b6000610a5883836000610f88565b9050600073ffffffffffffffffffffffffffffffffffffffff168173ffffffffffffffffffffffffffffffffffffffff1614610acc5760006040517f73c6ac6e000000000000000000000000000000000000000000000000000000008152600401610ac3919061176d565b60405180910390fd5b505050565b80600660008481526020019081526020016000209081610af19190611f74565b507ff8e1a15aba9398e019f0b49df1a4fde98ee17ae345cb5f6b5e2c27f5033e8ce782604051610b219190611883565b60405180910390a15050565b600073ffffffffffffffffffffffffffffffffffffffff168273ffffffffffffffffffffffffffffffffffffffff1603610b9e57816040517f5b08ba18000000000000000000000000000000000000000000000000000000008152600401610b95919061176d565b60405180910390fd5b80600560008573ffffffffffffffffffffffffffffffffffffffff1673ffffffffffffffffffffffffffffffffffffffff16815260200190815260200160002060008473ffffffffffffffffffffffffffffffffffffffff1673ffffffffffffffffffffffffffffffffffffffff16815260200190815260200160002060006101000a81548160ff0219169083151502179055508173ffffffffffffffffffffffffffffffffffffffff168373ffffffffffffffffffffffffffffffffffffffff167f17307eab39ab6107e8899845ad3d59bd9653f200f220920489ca2b5937696c3183604051610c8f91906115fc565b60405180910390a3505050565b606060405180602001604052806000815250905090565b6060610cbe826108f9565b506000610cc9610c9c565b90506000815111610ce95760405180602001604052806000815250610d14565b80610cf3846111a2565b604051602001610d04929190611da4565b6040516020818303038152906040525b915050919050565b60007f01ffc9a7000000000000000000000000000000000000000000000000000000007bffffffffffffffffffffffffffffffffffffffffffffffffffffffff1916827bffffffffffffffffffffffffffffffffffffffffffffffffffffffff1916149050919050565b60006002600083815260200190815260200160002060009054906101000a900473ffffffffffffffffffffffffffffffffffffffff169050919050565b8080610dfc5750600073ffffffffffffffffffffffffffffffffffffffff168273ffffffffffffffffffffffffffffffffffffffff1614155b15610f30576000610e0c846108f9565b9050600073ffffffffffffffffffffffffffffffffffffffff168373ffffffffffffffffffffffffffffffffffffffff1614158015610e7757508273ffffffffffffffffffffffffffffffffffffffff168173ffffffffffffffffffffffffffffffffffffffff1614155b8015610e8a5750610e888184610783565b155b15610ecc57826040517fa9fbf51f000000000000000000000000000000000000000000000000000000008152600401610ec3919061176d565b60405180910390fd5b8115610f2e57838573ffffffffffffffffffffffffffffffffffffffff168273ffffffffffffffffffffffffffffffffffffffff167f8c5be1e5ebec7d5bd14f71427d1e84f3dd0314c0f7b2291e5b200ac8c7c3b92560405160405180910390a45b505b836004600085815260200190815260200160002060006101000a81548173ffffffffffffffffffffffffffffffffffffffff021916908373ffffffffffffffffffffffffffffffffffffffff16021790555050505050565b600080610f9484610d86565b9050600073ffffffffffffffffffffffffffffffffffffffff168373ffffffffffffffffffffffffffffffffffffffff1614610fd657610fd5818486611270565b5b600073ffffffffffffffffffffffffffffffffffffffff168173ffffffffffffffffffffffffffffffffffffffff161461106757611018600085600080610dc3565b6001600360008373ffffffffffffffffffffffffffffffffffffffff1673ffffffffffffffffffffffffffffffffffffffff168152602001908152602001600020600082825403925050819055505b600073ffffffffffffffffffffffffffffffffffffffff168573ffffffffffffffffffffffffffffffffffffffff16146110ea576001600360008773ffffffffffffffffffffffffffffffffffffffff1673ffffffffffffffffffffffffffffffffffffffff168152602001908152602001600020600082825401925050819055505b846002600086815260200190815260200160002060006101000a81548173ffffffffffffffffffffffffffffffffffffffff021916908373ffffffffffffffffffffffffffffffffffffffff160217905550838573ffffffffffffffffffffffffffffffffffffffff168273ffffffffffffffffffffffffffffffffffffffff167fddf252ad1be2c89b69c2b068fc378daa952ba7f163c4a11628f55a4df523b3ef60405160405180910390a4809150509392505050565b6060600060016111b184611334565b01905060008167ffffffffffffffff8111156111d0576111cf6118a8565b5b6040519080825280601f01601f1916602001820160405280156112025781602001600182028036833780820191505090505b509050600082602001820190505b600115611265578080600190039150507f3031323334353637383961626364656600000000000000000000000000000000600a86061a8153600a858161125957611258612046565b5b04945060008503611210575b819350505050919050565b61127b838383611487565b61132f57600073ffffffffffffffffffffffffffffffffffffffff168373ffffffffffffffffffffffffffffffffffffffff16036112f057806040517f7e2732890000000000000000000000000000000000000000000000000000000081526004016112e79190611883565b60405180910390fd5b81816040517f177e802f000000000000000000000000000000000000000000000000000000008152600401611326929190612075565b60405180910390fd5b505050565b600080600090507a184f03e93ff9f4daa797ed6e38ed64bf6a1f0100000000000000008310611392577a184f03e93ff9f4daa797ed6e38ed64bf6a1f010000000000000000838161138857611387612046565b5b0492506040810190505b6d04ee2d6d415b85acef810000000083106113cf576d04ee2d6d415b85acef810000000083816113c5576113c4612046565b5b0492506020810190505b662386f26fc1000083106113fe57662386f26fc1000083816113f4576113f3612046565b5b0492506010810190505b6305f5e1008310611427576305f5e100838161141d5761141c612046565b5b0492506008810190505b612710831061144c57612710838161144257611441612046565b5b0492506004810190505b6064831061146f576064838161146557611464612046565b5b0492506002810190505b600a831061147e576001810190505b80915050919050565b60008073ffffffffffffffffffffffffffffffffffffffff168373ffffffffffffffffffffffffffffffffffffffff161415801561153f57508273ffffffffffffffffffffffffffffffffffffffff168473ffffffffffffffffffffffffffffffffffffffff16148061150057506114ff8484610783565b5b8061153e57508273ffffffffffffffffffffffffffffffffffffffff1661152683610981565b73ffffffffffffffffffffffffffffffffffffffff16145b5b90509392505050565b6000604051905090565b600080fd5b600080fd5b60007fffffffff0000000000000000000000000000000000000000000000000000000082169050919050565b6115918161155c565b811461159c57600080fd5b50565b6000813590506115ae81611588565b92915050565b6000602082840312156115ca576115c9611552565b5b60006115d88482850161159f565b91505092915050565b60008115159050919050565b6115f6816115e1565b82525050565b600060208201905061161160008301846115ed565b92915050565b600081519050919050565b600082825260208201905092915050565b60005b83811015611651578082015181840152602081019050611636565b60008484015250505050565b6000601f19601f8301169050919050565b600061167982611617565b6116838185611622565b9350611693818560208601611633565b61169c8161165d565b840191505092915050565b600060208201905081810360008301526116c1818461166e565b905092915050565b6000819050919050565b6116dc816116c9565b81146116e757600080fd5b50565b6000813590506116f9816116d3565b92915050565b60006020828403121561171557611714611552565b5b6000611723848285016116ea565b91505092915050565b600073ffffffffffffffffffffffffffffffffffffffff82169050919050565b60006117578261172c565b9050919050565b6117678161174c565b82525050565b6000602082019050611782600083018461175e565b92915050565b6117918161174c565b811461179c57600080fd5b50565b6000813590506117ae81611788565b92915050565b600080604083850312156117cb576117ca611552565b5b60006117d98582860161179f565b92505060206117ea858286016116ea565b9150509250929050565b60008060006060848603121561180d5761180c611552565b5b600061181b8682870161179f565b935050602061182c8682870161179f565b925050604061183d868287016116ea565b9150509250925092565b60006020828403121561185d5761185c611552565b5b600061186b8482850161179f565b91505092915050565b61187d816116c9565b82525050565b60006020820190506118986000830184611874565b92915050565b600080fd5b600080fd5b7f4e487b7100000000000000000000000000000000000000000000000000000000600052604160045260246000fd5b6118e08261165d565b810181811067ffffffffffffffff821117156118ff576118fe6118a8565b5b80604052505050565b6000611912611548565b905061191e82826118d7565b919050565b600067ffffffffffffffff82111561193e5761193d6118a8565b5b6119478261165d565b9050602081019050919050565b82818337600083830152505050565b600061197661197184611923565b611908565b905082815260208101848484011115611992576119916118a3565b5b61199d848285611954565b509392505050565b600082601f8301126119ba576119b961189e565b5b81356119ca848260208601611963565b91505092915050565b600080604083850312156119ea576119e9611552565b5b60006119f88582860161179f565b925050602083013567ffffffffffffffff811115611a1957611a18611557565b5b611a25858286016119a5565b9150509250929050565b611a38816115e1565b8114611a4357600080fd5b50565b600081359050611a5581611a2f565b92915050565b60008060408385031215611a7257611a71611552565b5b6000611a808582860161179f565b9250506020611a9185828601611a46565b9150509250929050565b600067ffffffffffffffff821115611ab657611ab56118a8565b5b611abf8261165d565b9050602081019050919050565b6000611adf611ada84611a9b565b611908565b905082815260208101848484011115611afb57611afa6118a3565b5b611b06848285611954565b509392505050565b600082601f830112611b2357611b2261189e565b5b8135611b33848260208601611acc565b91505092915050565b60008060008060808587031215611b5657611b55611552565b5b6000611b648782880161179f565b9450506020611b758782880161179f565b9350506040611b86878288016116ea565b925050606085013567ffffffffffffffff811115611ba757611ba6611557565b5b611bb387828801611b0e565b91505092959194509250565b60008060408385031215611bd657611bd5611552565b5b6000611be48582860161179f565b9250506020611bf58582860161179f565b9150509250929050565b7f4e487b7100000000000000000000000000000000000000000000000000000000600052602260045260246000fd5b60006002820490506001821680611c4657607f821691505b602082108103611c5957611c58611bff565b5b50919050565b7f4c616d655342543a20546f6b656e7320617265206e6f6e2d7472616e7366657260008201527f61626c6500000000000000000000000000000000000000000000000000000000602082015250565b6000611cbb602483611622565b9150611cc682611c5f565b604082019050919050565b60006020820190508181036000830152611cea81611cae565b9050919050565b7f4e487b7100000000000000000000000000000000000000000000000000000000600052601160045260246000fd5b6000611d2b826116c9565b91507fffffffffffffffffffffffffffffffffffffffffffffffffffffffffffffffff8203611d5d57611d5c611cf1565b5b600182019050919050565b600081905092915050565b6000611d7e82611617565b611d888185611d68565b9350611d98818560208601611633565b80840191505092915050565b6000611db08285611d73565b9150611dbc8284611d73565b91508190509392505050565b60008190508160005260206000209050919050565b60006020601f8301049050919050565b600082821b905092915050565b600060088302611e2a7fffffffffffffffffffffffffffffffffffffffffffffffffffffffffffffffff82611ded565b611e348683611ded565b95508019841693508086168417925050509392505050565b6000819050919050565b6000611e71611e6c611e67846116c9565b611e4c565b6116c9565b9050919050565b6000819050919050565b611e8b83611e56565b611e9f611e9782611e78565b848454611dfa565b825550505050565b600090565b611eb4611ea7565b611ebf818484611e82565b505050565b5b81811015611ee357611ed8600082611eac565b600181019050611ec5565b5050565b601f821115611f2857611ef981611dc8565b611f0284611ddd565b81016020851015611f11578190505b611f25611f1d85611ddd565b830182611ec4565b50505b505050565b600082821c905092915050565b6000611f4b60001984600802611f2d565b1980831691505092915050565b6000611f648383611f3a565b9150826002028217905092915050565b611f7d82611617565b67ffffffffffffffff811115611f9657611f956118a8565b5b611fa08254611c2e565b611fab828285611ee7565b600060209050601f831160018114611fde5760008415611fcc578287015190505b611fd68582611f58565b86555061203e565b601f198416611fec86611dc8565b60005b8281101561201457848901518255600182019150602085019450602081019050611fef565b86831015612031578489015161202d601f891682611f3a565b8355505b6001600288020188555050505b505050505050565b7f4e487b7100000000000000000000000000000000000000000000000000000000600052601260045260246000fd5b600060408201905061208a600083018561175e565b6120976020830184611874565b939250505056fea26469706673582212200098cbd74c0ae6c1d81a33a9143f35922dc175fb97421eee7f44fa0051bdedd064736f6c634300081c0033",
  "linkReferences": {},
  "deployedLinkReferences": {}
}